{
  "contractName": "ZBlock",
  "abi": [
    {
      "inputs": [],
      "stateMutability": "nonpayable",
      "type": "constructor"
    },
    {
      "anonymous": false,
      "inputs": [
        {
          "indexed": true,
          "internalType": "uint256",
          "name": "communityIndex",
          "type": "uint256"
        },
        {
          "indexed": true,
          "internalType": "address",
          "name": "communityFounder",
          "type": "address"
        }
      ],
      "name": "CommunityCreated",
      "type": "event"
    },
    {
      "anonymous": false,
      "inputs": [
        {
          "indexed": false,
          "internalType": "address",
          "name": "account",
          "type": "address"
        }
      ],
      "name": "Paused",
      "type": "event"
    },
    {
      "anonymous": false,
      "inputs": [
        {
          "indexed": false,
          "internalType": "address",
          "name": "account",
          "type": "address"
        }
      ],
      "name": "Unpaused",
      "type": "event"
    },
    {
      "inputs": [],
      "name": "paused",
      "outputs": [
        {
          "internalType": "bool",
          "name": "",
          "type": "bool"
        }
      ],
      "stateMutability": "view",
      "type": "function",
      "constant": true
    },
    {
      "inputs": [
        {
          "components": [
            {
              "internalType": "address",
              "name": "founder",
              "type": "address"
            },
            {
              "components": [
                {
                  "internalType": "string",
                  "name": "id",
                  "type": "string"
                },
                {
                  "internalType": "string",
                  "name": "name",
                  "type": "string"
                },
                {
                  "internalType": "string",
                  "name": "description",
                  "type": "string"
                },
                {
                  "internalType": "string",
                  "name": "website",
                  "type": "string"
                },
                {
                  "internalType": "string",
                  "name": "founderName",
                  "type": "string"
                },
                {
                  "internalType": "string",
                  "name": "founderEmail",
                  "type": "string"
                },
                {
                  "internalType": "string",
                  "name": "founderPhone",
                  "type": "string"
                }
              ],
              "internalType": "struct Community.CommunityDetail",
              "name": "detail",
              "type": "tuple"
            },
            {
              "internalType": "enum Community.CommunityType",
              "name": "typeInfo",
              "type": "uint8"
            },
            {
              "internalType": "enum Community.CommunityPurpose[]",
              "name": "purposes",
              "type": "uint8[]"
            },
            {
              "components": [
                {
                  "internalType": "string",
                  "name": "country",
                  "type": "string"
                },
                {
                  "internalType": "string",
                  "name": "city",
                  "type": "string"
                },
                {
                  "internalType": "string",
                  "name": "addressDetail",
                  "type": "string"
                }
              ],
              "internalType": "struct Community.CommunityAddress",
              "name": "addressInfo",
              "type": "tuple"
            },
            {
              "components": [
                {
                  "internalType": "uint256",
                  "name": "minLockingDate",
                  "type": "uint256"
                },
                {
                  "internalType": "uint256",
                  "name": "maxLockingDate",
                  "type": "uint256"
                }
              ],
              "internalType": "struct Community.CommunityFundLocking",
              "name": "fundLocking",
              "type": "tuple"
            },
            {
              "components": [
                {
                  "internalType": "uint256",
                  "name": "targetAmount",
                  "type": "uint256"
                },
                {
                  "internalType": "enum Community.ReleaseFund",
                  "name": "releaseFund",
                  "type": "uint8"
                },
                {
                  "internalType": "address payable",
                  "name": "securityManager",
                  "type": "address"
                }
              ],
              "internalType": "struct Community.CommunityFundReleasing",
              "name": "fundReleasing",
              "type": "tuple"
            }
          ],
          "internalType": "struct Community.CommunityInfo",
          "name": "_communityInfo",
          "type": "tuple"
        }
      ],
      "name": "newCommunity",
      "outputs": [],
      "stateMutability": "nonpayable",
      "type": "function"
    },
    {
      "inputs": [],
      "name": "communityList",
      "outputs": [
        {
          "internalType": "contract Community[]",
          "name": "",
          "type": "address[]"
        }
      ],
      "stateMutability": "view",
      "type": "function",
      "constant": true
    }
  ],
  "bytecode": "0x608060405234801561001057600080fd5b5060008060006101000a81548160ff02191690831515021790555033600060016101000a81548173ffffffffffffffffffffffffffffffffffffffff021916908373ffffffffffffffffffffffffffffffffffffffff1602179055506000600381905550613ab9806100836000396000f3fe60806040523480156200001157600080fd5b5060043610620000465760003560e01c80635c975abb146200004b57806371f60276146200006d578063d03b2e18146200008d575b600080fd5b62000055620000af565b60405162000064919062000e25565b60405180910390f35b6200008b6004803603810190620000859190620008d5565b620000c5565b005b62000097620002d7565b604051620000a6919062000e01565b60405180910390f35b60008060009054906101000a900460ff16905090565b620000cf620000af565b1562000112576040517f08c379a0000000000000000000000000000000000000000000000000000000008152600401620001099062000e64565b60405180910390fd5b806000015173ffffffffffffffffffffffffffffffffffffffff163373ffffffffffffffffffffffffffffffffffffffff161462000187576040517f08c379a00000000000000000000000000000000000000000000000000000000081526004016200017e9062000e42565b60405180910390fd5b600081604051620001989062000367565b620001a4919062000e86565b604051809103906000f080158015620001c1573d6000803e3d6000fd5b5090506001819080600181540180825580915050600190039060005260206000200160009091909190916101000a81548173ffffffffffffffffffffffffffffffffffffffff021916908373ffffffffffffffffffffffffffffffffffffffff1602179055508060026000600354815260200190815260200160002060006101000a81548173ffffffffffffffffffffffffffffffffffffffff021916908373ffffffffffffffffffffffffffffffffffffffff1602179055503373ffffffffffffffffffffffffffffffffffffffff166003547f42c24a3323433819443a75d0e2651a9c84f696fba638d730042960045ef2724160405160405180910390a36003600081548092919060010191905055505050565b606060018054806020026020016040519081016040528092919081815260200182805480156200035d57602002820191906000526020600020905b8160009054906101000a900473ffffffffffffffffffffffffffffffffffffffff1673ffffffffffffffffffffffffffffffffffffffff168152602001906001019080831162000312575b5050505050905090565b6128b480620011d083390190565b60008135905062000386816200114e565b92915050565b6000813590506200039d8162001168565b92915050565b600082601f830112620003b557600080fd5b8135620003cc620003c68262000ed8565b62000eaa565b91508181835260208401935060208101905083856020840282011115620003f257600080fd5b60005b838110156200042657816200040b888262000430565b845260208401935060208301925050600181019050620003f5565b5050505092915050565b600081359050620004418162001182565b92915050565b600081359050620004588162001193565b92915050565b6000813590506200046f81620011a4565b92915050565b600082601f8301126200048757600080fd5b81356200049e620004988262000f01565b62000eaa565b91508082526020830160208301858383011115620004bb57600080fd5b620004c8838284620010ce565b50505092915050565b600060608284031215620004e457600080fd5b620004f0606062000eaa565b9050600082013567ffffffffffffffff8111156200050d57600080fd5b6200051b8482850162000475565b600083015250602082013567ffffffffffffffff8111156200053c57600080fd5b6200054a8482850162000475565b602083015250604082013567ffffffffffffffff8111156200056b57600080fd5b620005798482850162000475565b60408301525092915050565b600060e082840312156200059857600080fd5b620005a460e062000eaa565b9050600082013567ffffffffffffffff811115620005c157600080fd5b620005cf8482850162000475565b600083015250602082013567ffffffffffffffff811115620005f057600080fd5b620005fe8482850162000475565b602083015250604082013567ffffffffffffffff8111156200061f57600080fd5b6200062d8482850162000475565b604083015250606082013567ffffffffffffffff8111156200064e57600080fd5b6200065c8482850162000475565b606083015250608082013567ffffffffffffffff8111156200067d57600080fd5b6200068b8482850162000475565b60808301525060a082013567ffffffffffffffff811115620006ac57600080fd5b620006ba8482850162000475565b60a08301525060c082013567ffffffffffffffff811115620006db57600080fd5b620006e98482850162000475565b60c08301525092915050565b6000604082840312156200070857600080fd5b62000714604062000eaa565b905060006200072684828501620008be565b60008301525060206200073c84828501620008be565b60208301525092915050565b6000606082840312156200075b57600080fd5b62000767606062000eaa565b905060006200077984828501620008be565b60008301525060206200078f848285016200045e565b6020830152506040620007a5848285016200038c565b60408301525092915050565b60006101408284031215620007c557600080fd5b620007d160e062000eaa565b90506000620007e38482850162000375565b600083015250602082013567ffffffffffffffff8111156200080457600080fd5b620008128482850162000585565b6020830152506040620008288482850162000447565b604083015250606082013567ffffffffffffffff8111156200084957600080fd5b6200085784828501620003a3565b606083015250608082013567ffffffffffffffff8111156200087857600080fd5b6200088684828501620004d1565b60808301525060a06200089c84828501620006f5565b60a08301525060e0620008b28482850162000748565b60c08301525092915050565b600081359050620008cf81620011b5565b92915050565b600060208284031215620008e857600080fd5b600082013567ffffffffffffffff8111156200090357600080fd5b6200091184828501620007b1565b91505092915050565b600062000928838362000a55565b60208301905092915050565b600062000942838362000a66565b60208301905092915050565b620009598162000fe1565b82525050565b6200096a8162000fcd565b82525050565b60006200097d8262000f4e565b62000989818562000f89565b9350620009968362000f2e565b8060005b83811015620009cd578151620009b188826200091a565b9750620009be8362000f6f565b9250506001810190506200099a565b5085935050505092915050565b6000620009e78262000f59565b620009f3818562000f9a565b935062000a008362000f3e565b8060005b8381101562000a3757815162000a1b888262000934565b975062000a288362000f7c565b92505060018101905062000a04565b5085935050505092915050565b62000a4f8162000ff5565b82525050565b62000a60816200106a565b82525050565b62000a718162001092565b82525050565b62000a8281620010a6565b82525050565b62000a9381620010ba565b82525050565b600062000aa68262000f64565b62000ab2818562000fab565b935062000ac4818560208601620010dd565b62000acf8162001113565b840191505092915050565b600062000ae960348362000fbc565b91507f436f6d6d756e6974792063726561746f72206d7573742062652073616d65207760008301527f69746820666f756e6465722061646472657373210000000000000000000000006020830152604082019050919050565b600062000b5160108362000fbc565b91507f5061757361626c653a20706175736564000000000000000000000000000000006000830152602082019050919050565b6000606083016000830151848203600086015262000ba3828262000a99565b9150506020830151848203602086015262000bbf828262000a99565b9150506040830151848203604086015262000bdb828262000a99565b9150508091505092915050565b600060e083016000830151848203600086015262000c07828262000a99565b9150506020830151848203602086015262000c23828262000a99565b9150506040830151848203604086015262000c3f828262000a99565b9150506060830151848203606086015262000c5b828262000a99565b9150506080830151848203608086015262000c77828262000a99565b91505060a083015184820360a086015262000c93828262000a99565b91505060c083015184820360c086015262000caf828262000a99565b9150508091505092915050565b60408201600082015162000cd4600085018262000df0565b50602082015162000ce9602085018262000df0565b50505050565b60608201600082015162000d07600085018262000df0565b50602082015162000d1c602085018262000a88565b50604082015162000d3160408501826200094e565b50505050565b60006101408301600083015162000d5260008601826200095f565b506020830151848203602086015262000d6c828262000be8565b915050604083015162000d83604086018262000a77565b506060830151848203606086015262000d9d8282620009da565b9150506080830151848203608086015262000db9828262000b84565b91505060a083015162000dd060a086018262000cbc565b5060c083015162000de560e086018262000cef565b508091505092915050565b62000dfb8162001060565b82525050565b6000602082019050818103600083015262000e1d818462000970565b905092915050565b600060208201905062000e3c600083018462000a44565b92915050565b6000602082019050818103600083015262000e5d8162000ada565b9050919050565b6000602082019050818103600083015262000e7f8162000b42565b9050919050565b6000602082019050818103600083015262000ea2818462000d37565b905092915050565b6000604051905081810181811067ffffffffffffffff8211171562000ece57600080fd5b8060405250919050565b600067ffffffffffffffff82111562000ef057600080fd5b602082029050602081019050919050565b600067ffffffffffffffff82111562000f1957600080fd5b601f19601f8301169050602081019050919050565b6000819050602082019050919050565b6000819050602082019050919050565b600081519050919050565b600081519050919050565b600081519050919050565b6000602082019050919050565b6000602082019050919050565b600082825260208201905092915050565b600082825260208201905092915050565b600082825260208201905092915050565b600082825260208201905092915050565b600062000fda8262001040565b9050919050565b600062000fee8262001040565b9050919050565b60008115159050919050565b6000819050620010118262001124565b919050565b6000819050620010268262001132565b919050565b60008190506200103b8262001140565b919050565b600073ffffffffffffffffffffffffffffffffffffffff82169050919050565b6000819050919050565b600062001077826200107e565b9050919050565b60006200108b8262001040565b9050919050565b60006200109f8262001001565b9050919050565b6000620010b38262001016565b9050919050565b6000620010c7826200102b565b9050919050565b82818337600083830152505050565b60005b83811015620010fd578082015181840152602081019050620010e0565b838111156200110d576000848401525b50505050565b6000601f19601f8301169050919050565b600781106200112f57fe5b50565b600681106200113d57fe5b50565b600381106200114b57fe5b50565b620011598162000fcd565b81146200116557600080fd5b50565b620011738162000fe1565b81146200117f57600080fd5b50565b600781106200119057600080fd5b50565b60068110620011a157600080fd5b50565b60038110620011b257600080fd5b50565b620011c08162001060565b8114620011cc57600080fd5b5056fe60806040523480156200001157600080fd5b50604051620028b4380380620028b4833981810160405281019062000037919062000f69565b600073ffffffffffffffffffffffffffffffffffffffff16816000015173ffffffffffffffffffffffffffffffffffffffff161415620000ae576040517f08c379a0000000000000000000000000000000000000000000000000000000008152600401620000a59062001604565b60405180910390fd5b60008160200151602001515111620000fd576040517f08c379a0000000000000000000000000000000000000000000000000000000008152600401620000f490620016ae565b60405180910390fd5b600081602001516040015151116200014c576040517f08c379a0000000000000000000000000000000000000000000000000000000008152600401620001439062001758565b60405180910390fd5b600081602001516080015151116200019b576040517f08c379a00000000000000000000000000000000000000000000000000000000081526004016200019290620017e0565b60405180910390fd5b6000816020015160a001515111620001ea576040517f08c379a0000000000000000000000000000000000000000000000000000000008152600401620001e1906200166a565b60405180910390fd5b6000816020015160c00151511162000239576040517f08c379a0000000000000000000000000000000000000000000000000000000008152600401620002309062001736565b60405180910390fd5b600060058111156200024757fe5b816040015160058111156200025857fe5b101580156200028357506005808111156200026f57fe5b816040015160058111156200028057fe5b11155b620002c5576040517f08c379a0000000000000000000000000000000000000000000000000000000008152600401620002bc90620015e2565b60405180910390fd5b60008160600151511162000310576040517f08c379a000000000000000000000000000000000000000000000000000000000815260040162000307906200168c565b60405180910390fd5b600081608001516000015151116200035f576040517f08c379a00000000000000000000000000000000000000000000000000000000081526004016200035690620017be565b60405180910390fd5b60008160800151602001515111620003ae576040517f08c379a0000000000000000000000000000000000000000000000000000000008152600401620003a59062001648565b60405180910390fd5b60008160800151604001515111620003fd576040517f08c379a0000000000000000000000000000000000000000000000000000000008152600401620003f490620016f2565b60405180910390fd5b60008160a0015160000151116200044b576040517f08c379a000000000000000000000000000000000000000000000000000000000815260040162000442906200177a565b60405180910390fd5b60008160a00151602001511162000499576040517f08c379a0000000000000000000000000000000000000000000000000000000008152600401620004909062001626565b60405180910390fd5b60008160c001516000015111620004e7576040517f08c379a0000000000000000000000000000000000000000000000000000000008152600401620004de906200179c565b60405180910390fd5b60006002811115620004f557fe5b8160c001516020015160028111156200050a57fe5b1015806200053857506002808111156200052057fe5b8160c001516020015160028111156200053557fe5b11155b6200057a576040517f08c379a00000000000000000000000000000000000000000000000000000000081526004016200057190620016d0565b60405180910390fd5b600073ffffffffffffffffffffffffffffffffffffffff168160c001516040015173ffffffffffffffffffffffffffffffffffffffff161415620005f5576040517f08c379a0000000000000000000000000000000000000000000000000000000008152600401620005ec9062001714565b60405180910390fd5b806000808201518160000160006101000a81548173ffffffffffffffffffffffffffffffffffffffff021916908373ffffffffffffffffffffffffffffffffffffffff16021790555060208201518160010160008201518160000190805190602001906200066592919062000882565b5060208201518160010190805190602001906200068492919062000882565b506040820151816002019080519060200190620006a392919062000882565b506060820151816003019080519060200190620006c292919062000882565b506080820151816004019080519060200190620006e192919062000882565b5060a08201518160050190805190602001906200070092919062000882565b5060c08201518160060190805190602001906200071f92919062000882565b50505060408201518160080160006101000a81548160ff021916908360058111156200074757fe5b021790555060608201518160090190805190602001906200076a92919062000909565b50608082015181600a0160008201518160000190805190602001906200079292919062000882565b506020820151816001019080519060200190620007b192919062000882565b506040820151816002019080519060200190620007d092919062000882565b50505060a082015181600d016000820151816000015560208201518160010155505060c082015181600f016000820151816000015560208201518160010160006101000a81548160ff021916908360028111156200082a57fe5b021790555060408201518160010160016101000a81548173ffffffffffffffffffffffffffffffffffffffff021916908373ffffffffffffffffffffffffffffffffffffffff160217905550505090505050620019a0565b828054600181600116156101000203166002900490600052602060002090601f016020900481019282601f10620008c557805160ff1916838001178555620008f6565b82800160010185558215620008f6579182015b82811115620008f5578251825591602001919060010190620008d8565b5b509050620009059190620009c0565b5090565b82805482825590600052602060002090601f01602090048101928215620009ad5791602002820160005b838211156200097c57835183826101000a81548160ff021916908360068111156200095a57fe5b0217905550926020019260010160208160000104928301926001030262000933565b8015620009ab5782816101000a81549060ff02191690556001016020816000010492830192600103026200097c565b505b509050620009bc9190620009df565b5090565b5b80821115620009db576000816000905550600101620009c1565b5090565b5b8082111562000a0557600081816101000a81549060ff021916905550600101620009e0565b5090565b60008151905062000a1a816200191f565b92915050565b60008151905062000a318162001939565b92915050565b600082601f83011262000a4957600080fd5b815162000a6062000a5a8262001830565b62001802565b9150818183526020840193506020810190508385602084028201111562000a8657600080fd5b60005b8381101562000aba578162000a9f888262000ac4565b84526020840193506020830192505060018101905062000a89565b5050505092915050565b60008151905062000ad58162001953565b92915050565b60008151905062000aec8162001964565b92915050565b60008151905062000b038162001975565b92915050565b600082601f83011262000b1b57600080fd5b815162000b3262000b2c8262001859565b62001802565b9150808252602083016020830185838301111562000b4f57600080fd5b62000b5c838284620018e9565b50505092915050565b60006060828403121562000b7857600080fd5b62000b84606062001802565b9050600082015167ffffffffffffffff81111562000ba157600080fd5b62000baf8482850162000b09565b600083015250602082015167ffffffffffffffff81111562000bd057600080fd5b62000bde8482850162000b09565b602083015250604082015167ffffffffffffffff81111562000bff57600080fd5b62000c0d8482850162000b09565b60408301525092915050565b600060e0828403121562000c2c57600080fd5b62000c3860e062001802565b9050600082015167ffffffffffffffff81111562000c5557600080fd5b62000c638482850162000b09565b600083015250602082015167ffffffffffffffff81111562000c8457600080fd5b62000c928482850162000b09565b602083015250604082015167ffffffffffffffff81111562000cb357600080fd5b62000cc18482850162000b09565b604083015250606082015167ffffffffffffffff81111562000ce257600080fd5b62000cf08482850162000b09565b606083015250608082015167ffffffffffffffff81111562000d1157600080fd5b62000d1f8482850162000b09565b60808301525060a082015167ffffffffffffffff81111562000d4057600080fd5b62000d4e8482850162000b09565b60a08301525060c082015167ffffffffffffffff81111562000d6f57600080fd5b62000d7d8482850162000b09565b60c08301525092915050565b60006040828403121562000d9c57600080fd5b62000da8604062001802565b9050600062000dba8482850162000f52565b600083015250602062000dd08482850162000f52565b60208301525092915050565b60006060828403121562000def57600080fd5b62000dfb606062001802565b9050600062000e0d8482850162000f52565b600083015250602062000e238482850162000af2565b602083015250604062000e398482850162000a20565b60408301525092915050565b6000610140828403121562000e5957600080fd5b62000e6560e062001802565b9050600062000e778482850162000a09565b600083015250602082015167ffffffffffffffff81111562000e9857600080fd5b62000ea68482850162000c19565b602083015250604062000ebc8482850162000adb565b604083015250606082015167ffffffffffffffff81111562000edd57600080fd5b62000eeb8482850162000a37565b606083015250608082015167ffffffffffffffff81111562000f0c57600080fd5b62000f1a8482850162000b65565b60808301525060a062000f308482850162000d89565b60a08301525060e062000f468482850162000ddc565b60c08301525092915050565b60008151905062000f638162001986565b92915050565b60006020828403121562000f7c57600080fd5b600082015167ffffffffffffffff81111562000f9757600080fd5b62000fa58482850162000e45565b91505092915050565b600062000fbd601f8362001886565b91507f436f6d6d756e6974792074797065206d75737420626520626520676976656e006000830152602082019050919050565b600062000fff60268362001886565b91507f466f756e64657220657468657265756d2061646472657373206d75737420626560008301527f20676976656e00000000000000000000000000000000000000000000000000006020830152604082019050919050565b60006200106760298362001886565b91507f436f6d6d756e697479206d61782e2066756e64206c6f636b696e67206d75737460008301527f20626520676976656e00000000000000000000000000000000000000000000006020830152604082019050919050565b6000620010cf60248362001886565b91507f436f6d6d756e69747920616464726573732063697479206d757374206265206760008301527f6976656e000000000000000000000000000000000000000000000000000000006020830152604082019050919050565b60006200113760258362001886565b91507f436f6d6d756e69747920666f756e64657220656d61696c206d7573742062652060008301527f676976656e0000000000000000000000000000000000000000000000000000006020830152604082019050919050565b60006200119f60238362001886565b91507f436f6d6d756e69747920707572706f736520746167206d75737420626520676960008301527f76656e00000000000000000000000000000000000000000000000000000000006020830152604082019050919050565b600062001207601c8362001886565b91507f436f6d6d756e697479206e616d65206d75737420626520676976656e000000006000830152602082019050919050565b60006200124960338362001886565b91507f436f6d6d756e6974792066756e642072656c656173696e67207461726765742060008301527f76616c7565206d75737420626520676976656e000000000000000000000000006020830152604082019050919050565b6000620012b160268362001886565b91507f436f6d6d756e69747920616464726573732064657461696c206d75737420626560008301527f20676976656e00000000000000000000000000000000000000000000000000006020830152604082019050919050565b60006200131960358362001886565b91507f436f6d6d756e6974792066756e642072656c656173652073656375726974792060008301527f6d616e61676572206d75737420626520676976656e00000000000000000000006020830152604082019050919050565b60006200138160258362001886565b91507f436f6d6d756e69747920666f756e6465722070686f6e65206d7573742062652060008301527f676976656e0000000000000000000000000000000000000000000000000000006020830152604082019050919050565b6000620013e960238362001886565b91507f436f6d6d756e697479206465736372697074696f6e206d75737420626520676960008301527f76656e00000000000000000000000000000000000000000000000000000000006020830152604082019050919050565b60006200145160298362001886565b91507f436f6d6d756e697479206d696e2e2066756e64206c6f636b696e67206d75737460008301527f20626520676976656e00000000000000000000000000000000000000000000006020830152604082019050919050565b6000620014b9602a8362001886565b91507f436f6d6d756e6974792066756e642074617267657420616d6f756e74206d757360008301527f7420626520676976656e000000000000000000000000000000000000000000006020830152604082019050919050565b60006200152160278362001886565b91507f436f6d6d756e697479206164647265737320636f756e747279206d757374206260008301527f6520676976656e000000000000000000000000000000000000000000000000006020830152604082019050919050565b60006200158960248362001886565b91507f436f6d6d756e69747920666f756e646572206e616d65206d757374206265206760008301527f6976656e000000000000000000000000000000000000000000000000000000006020830152604082019050919050565b60006020820190508181036000830152620015fd8162000fae565b9050919050565b600060208201905081810360008301526200161f8162000ff0565b9050919050565b60006020820190508181036000830152620016418162001058565b9050919050565b600060208201905081810360008301526200166381620010c0565b9050919050565b60006020820190508181036000830152620016858162001128565b9050919050565b60006020820190508181036000830152620016a78162001190565b9050919050565b60006020820190508181036000830152620016c981620011f8565b9050919050565b60006020820190508181036000830152620016eb816200123a565b9050919050565b600060208201905081810360008301526200170d81620012a2565b9050919050565b600060208201905081810360008301526200172f816200130a565b9050919050565b60006020820190508181036000830152620017518162001372565b9050919050565b600060208201905081810360008301526200177381620013da565b9050919050565b60006020820190508181036000830152620017958162001442565b9050919050565b60006020820190508181036000830152620017b781620014aa565b9050919050565b60006020820190508181036000830152620017d98162001512565b9050919050565b60006020820190508181036000830152620017fb816200157a565b9050919050565b6000604051905081810181811067ffffffffffffffff821117156200182657600080fd5b8060405250919050565b600067ffffffffffffffff8211156200184857600080fd5b602082029050602081019050919050565b600067ffffffffffffffff8211156200187157600080fd5b601f19601f8301169050602081019050919050565b600082825260208201905092915050565b6000620018a482620018bf565b9050919050565b6000620018b882620018bf565b9050919050565b600073ffffffffffffffffffffffffffffffffffffffff82169050919050565b6000819050919050565b60005b8381101562001909578082015181840152602081019050620018ec565b8381111562001919576000848401525b50505050565b6200192a8162001897565b81146200193657600080fd5b50565b6200194481620018ab565b81146200195057600080fd5b50565b600781106200196157600080fd5b50565b600681106200197257600080fd5b50565b600381106200198357600080fd5b50565b6200199181620018df565b81146200199d57600080fd5b50565b610f0480620019b06000396000f3fe608060405234801561001057600080fd5b506004361061002b5760003560e01c80635a9b0b8914610030575b600080fd5b61003861004e565b6040516100459190610d2f565b60405180910390f35b6100566108b6565b60006040518060e00160405290816000820160009054906101000a900473ffffffffffffffffffffffffffffffffffffffff1673ffffffffffffffffffffffffffffffffffffffff1673ffffffffffffffffffffffffffffffffffffffff168152602001600182016040518060e0016040529081600082018054600181600116156101000203166002900480601f0160208091040260200160405190810160405280929190818152602001828054600181600116156101000203166002900480156101625780601f1061013757610100808354040283529160200191610162565b820191906000526020600020905b81548152906001019060200180831161014557829003601f168201915b50505050508152602001600182018054600181600116156101000203166002900480601f0160208091040260200160405190810160405280929190818152602001828054600181600116156101000203166002900480156102045780601f106101d957610100808354040283529160200191610204565b820191906000526020600020905b8154815290600101906020018083116101e757829003601f168201915b50505050508152602001600282018054600181600116156101000203166002900480601f0160208091040260200160405190810160405280929190818152602001828054600181600116156101000203166002900480156102a65780601f1061027b576101008083540402835291602001916102a6565b820191906000526020600020905b81548152906001019060200180831161028957829003601f168201915b50505050508152602001600382018054600181600116156101000203166002900480601f0160208091040260200160405190810160405280929190818152602001828054600181600116156101000203166002900480156103485780601f1061031d57610100808354040283529160200191610348565b820191906000526020600020905b81548152906001019060200180831161032b57829003601f168201915b50505050508152602001600482018054600181600116156101000203166002900480601f0160208091040260200160405190810160405280929190818152602001828054600181600116156101000203166002900480156103ea5780601f106103bf576101008083540402835291602001916103ea565b820191906000526020600020905b8154815290600101906020018083116103cd57829003601f168201915b50505050508152602001600582018054600181600116156101000203166002900480601f01602080910402602001604051908101604052809291908181526020018280546001816001161561010002031660029004801561048c5780601f106104615761010080835404028352916020019161048c565b820191906000526020600020905b81548152906001019060200180831161046f57829003601f168201915b50505050508152602001600682018054600181600116156101000203166002900480601f01602080910402602001604051908101604052809291908181526020018280546001816001161561010002031660029004801561052e5780601f106105035761010080835404028352916020019161052e565b820191906000526020600020905b81548152906001019060200180831161051157829003601f168201915b50505050508152505081526020016008820160009054906101000a900460ff16600581111561055957fe5b600581111561056457fe5b8152602001600982018054806020026020016040519081016040528092919081815260200182805480156105e557602002820191906000526020600020906000905b82829054906101000a900460ff1660068111156105bf57fe5b815260200190600101906020826000010492830192600103820291508084116105a65790505b50505050508152602001600a8201604051806060016040529081600082018054600181600116156101000203166002900480601f0160208091040260200160405190810160405280929190818152602001828054600181600116156101000203166002900480156106975780601f1061066c57610100808354040283529160200191610697565b820191906000526020600020905b81548152906001019060200180831161067a57829003601f168201915b50505050508152602001600182018054600181600116156101000203166002900480601f0160208091040260200160405190810160405280929190818152602001828054600181600116156101000203166002900480156107395780601f1061070e57610100808354040283529160200191610739565b820191906000526020600020905b81548152906001019060200180831161071c57829003601f168201915b50505050508152602001600282018054600181600116156101000203166002900480601f0160208091040260200160405190810160405280929190818152602001828054600181600116156101000203166002900480156107db5780601f106107b0576101008083540402835291602001916107db565b820191906000526020600020905b8154815290600101906020018083116107be57829003601f168201915b5050505050815250508152602001600d8201604051806040016040529081600082015481526020016001820154815250508152602001600f8201604051806060016040529081600082015481526020016001820160009054906101000a900460ff16600281111561084857fe5b600281111561085357fe5b81526020016001820160019054906101000a900473ffffffffffffffffffffffffffffffffffffffff1673ffffffffffffffffffffffffffffffffffffffff1673ffffffffffffffffffffffffffffffffffffffff168152505081525050905090565b6040518060e00160405280600073ffffffffffffffffffffffffffffffffffffffff1681526020016108e661092c565b8152602001600060058111156108f857fe5b81526020016060815260200161090c610969565b815260200161091961098a565b81526020016109266109a4565b81525090565b6040518060e00160405280606081526020016060815260200160608152602001606081526020016060815260200160608152602001606081525090565b60405180606001604052806060815260200160608152602001606081525090565b604051806040016040528060008152602001600081525090565b604051806060016040528060008152602001600060028111156109c357fe5b8152602001600073ffffffffffffffffffffffffffffffffffffffff1681525090565b60006109f28383610a7a565b60208301905092915050565b610a0781610db8565b82525050565b610a1681610da6565b82525050565b6000610a2782610d61565b610a318185610d84565b9350610a3c83610d51565b8060005b83811015610a6d578151610a5488826109e6565b9750610a5f83610d77565b925050600181019050610a40565b5085935050505092915050565b610a8381610e2d565b82525050565b610a9281610e3f565b82525050565b610aa181610e51565b82525050565b6000610ab282610d6c565b610abc8185610d95565b9350610acc818560208601610e63565b610ad581610e96565b840191505092915050565b60006060830160008301518482036000860152610afd8282610aa7565b91505060208301518482036020860152610b178282610aa7565b91505060408301518482036040860152610b318282610aa7565b9150508091505092915050565b600060e0830160008301518482036000860152610b5b8282610aa7565b91505060208301518482036020860152610b758282610aa7565b91505060408301518482036040860152610b8f8282610aa7565b91505060608301518482036060860152610ba98282610aa7565b91505060808301518482036080860152610bc38282610aa7565b91505060a083015184820360a0860152610bdd8282610aa7565b91505060c083015184820360c0860152610bf78282610aa7565b9150508091505092915050565b604082016000820151610c1a6000850182610d20565b506020820151610c2d6020850182610d20565b50505050565b606082016000820151610c496000850182610d20565b506020820151610c5c6020850182610a98565b506040820151610c6f60408501826109fe565b50505050565b600061014083016000830151610c8e6000860182610a0d565b5060208301518482036020860152610ca68282610b3e565b9150506040830151610cbb6040860182610a89565b5060608301518482036060860152610cd38282610a1c565b91505060808301518482036080860152610ced8282610ae0565b91505060a0830151610d0260a0860182610c04565b5060c0830151610d1560e0860182610c33565b508091505092915050565b610d2981610e23565b82525050565b60006020820190508181036000830152610d498184610c75565b905092915050565b6000819050602082019050919050565b600081519050919050565b600081519050919050565b6000602082019050919050565b600082825260208201905092915050565b600082825260208201905092915050565b6000610db182610e03565b9050919050565b6000610dc382610e03565b9050919050565b6000819050610dd882610ea7565b919050565b6000819050610deb82610eb4565b919050565b6000819050610dfe82610ec1565b919050565b600073ffffffffffffffffffffffffffffffffffffffff82169050919050565b6000819050919050565b6000610e3882610dca565b9050919050565b6000610e4a82610ddd565b9050919050565b6000610e5c82610df0565b9050919050565b60005b83811015610e81578082015181840152602081019050610e66565b83811115610e90576000848401525b50505050565b6000601f19601f8301169050919050565b60078110610eb157fe5b50565b60068110610ebe57fe5b50565b60038110610ecb57fe5b5056fea26469706673582212209d2ad27a4e8c65dce32ded2a7f62229c564bd36c04ed8a46748de9ab565ac77764736f6c63430007000033a2646970667358221220256d2f76b10e74a0a1151e984a2c1179c19cdad3a4f892304344ce115b6a33d664736f6c63430007000033",
  "immutableReferences": {},
  "source": "pragma solidity 0.7.0;\npragma experimental ABIEncoderV2;\n\nimport \"@openzeppelin/contracts/utils/Pausable.sol\";\nimport \"./Community.sol\";\n\n/**\n    @title ZBlock Foundation SmartContract\n    @author ssozuer\n */\ncontract ZBlock is Pausable {\n\t/// @dev the owner of the ZBlock smartcontract\n\taddress internal owner;\n\n\t/// @dev community smartcontract addresses\n\tCommunity[] internal communities;\n\n\t/// @dev (communityId => community) map to fast access\n\tmapping(uint256 => Community) internal communityOf;\n\n\t/// @dev community id for each created community\n\tuint256 internal communityIdCounter;\n\n\tevent CommunityCreated(\n\t\tuint256 indexed communityIndex,\n\t\taddress indexed communityFounder\n\t);\n\n\tconstructor() {\n\t\towner = msg.sender;\n\t\tcommunityIdCounter = 0;\n\t}\n\n\tfunction newCommunity(Community.CommunityInfo memory _communityInfo)\n\t\tpublic\n\t\twhenNotPaused\n\t{\n\t\trequire(\n\t\t\tmsg.sender == _communityInfo.founder,\n\t\t\t\"Community creator must be same with founder address!\"\n\t\t);\n\n\t\tCommunity community = new Community(_communityInfo);\n\t\tcommunities.push(community);\n\t\tcommunityOf[communityIdCounter] = community;\n\n\t\temit CommunityCreated(communityIdCounter, msg.sender);\n\t\tcommunityIdCounter++;\n\t}\n\n\tfunction communityList() public view returns (Community[] memory) {\n\t\treturn communities;\n\t}\n}\n",
  "sourcePath": "/Users/ssozuer/projects/zblock-smartcontracts/contracts/ZBlock.sol",
  "compiler": {
    "name": "solc",
    "version": "0.7.0+commit.9e61f92b.Emscripten.clang"
  },
  "schemaVersion": "3.3.3",
  "updatedAt": "2021-02-18T17:04:57.417Z",
  "networkType": "ethereum",
  "devdoc": {
    "author": "ssozuer",
    "kind": "dev",
    "methods": {
      "paused()": {
        "details": "Returns true if the contract is paused, and false otherwise."
      }
    },
    "stateVariables": {
      "communities": {
        "details": "community smartcontract addresses"
      },
      "communityIdCounter": {
        "details": "community id for each created community"
      },
      "communityOf": {
        "details": "(communityId => community) map to fast access"
      },
      "owner": {
        "details": "the owner of the ZBlock smartcontract"
      }
    },
    "title": "ZBlock Foundation SmartContract",
    "version": 1
  },
  "userdoc": {
    "kind": "user",
    "methods": {},
    "version": 1
  }
}